{
  "_format": "hh-sol-artifact-1",
  "contractName": "UserItems",
  "sourceName": "contracts/UserItems.sol",
  "abi": [
    {
      "inputs": [],
      "stateMutability": "nonpayable",
      "type": "constructor"
    },
    {
      "inputs": [
        {
          "internalType": "address",
          "name": "sender",
          "type": "address"
        },
        {
          "internalType": "uint256",
          "name": "balance",
          "type": "uint256"
        },
        {
          "internalType": "uint256",
          "name": "needed",
          "type": "uint256"
        },
        {
          "internalType": "uint256",
          "name": "tokenId",
          "type": "uint256"
        }
      ],
      "name": "ERC1155InsufficientBalance",
      "type": "error"
    },
    {
      "inputs": [
        {
          "internalType": "address",
          "name": "approver",
          "type": "address"
        }
      ],
      "name": "ERC1155InvalidApprover",
      "type": "error"
    },
    {
      "inputs": [
        {
          "internalType": "uint256",
          "name": "idsLength",
          "type": "uint256"
        },
        {
          "internalType": "uint256",
          "name": "valuesLength",
          "type": "uint256"
        }
      ],
      "name": "ERC1155InvalidArrayLength",
      "type": "error"
    },
    {
      "inputs": [
        {
          "internalType": "address",
          "name": "operator",
          "type": "address"
        }
      ],
      "name": "ERC1155InvalidOperator",
      "type": "error"
    },
    {
      "inputs": [
        {
          "internalType": "address",
          "name": "receiver",
          "type": "address"
        }
      ],
      "name": "ERC1155InvalidReceiver",
      "type": "error"
    },
    {
      "inputs": [
        {
          "internalType": "address",
          "name": "sender",
          "type": "address"
        }
      ],
      "name": "ERC1155InvalidSender",
      "type": "error"
    },
    {
      "inputs": [
        {
          "internalType": "address",
          "name": "operator",
          "type": "address"
        },
        {
          "internalType": "address",
          "name": "owner",
          "type": "address"
        }
      ],
      "name": "ERC1155MissingApprovalForAll",
      "type": "error"
    },
    {
      "inputs": [
        {
          "internalType": "address",
          "name": "owner",
          "type": "address"
        }
      ],
      "name": "OwnableInvalidOwner",
      "type": "error"
    },
    {
      "inputs": [
        {
          "internalType": "address",
          "name": "account",
          "type": "address"
        }
      ],
      "name": "OwnableUnauthorizedAccount",
      "type": "error"
    },
    {
      "anonymous": false,
      "inputs": [
        {
          "indexed": true,
          "internalType": "address",
          "name": "account",
          "type": "address"
        },
        {
          "indexed": true,
          "internalType": "address",
          "name": "operator",
          "type": "address"
        },
        {
          "indexed": false,
          "internalType": "bool",
          "name": "approved",
          "type": "bool"
        }
      ],
      "name": "ApprovalForAll",
      "type": "event"
    },
    {
      "anonymous": false,
      "inputs": [
        {
          "indexed": true,
          "internalType": "address",
          "name": "previousOwner",
          "type": "address"
        },
        {
          "indexed": true,
          "internalType": "address",
          "name": "newOwner",
          "type": "address"
        }
      ],
      "name": "OwnershipTransferred",
      "type": "event"
    },
    {
      "anonymous": false,
      "inputs": [
        {
          "indexed": true,
          "internalType": "address",
          "name": "operator",
          "type": "address"
        },
        {
          "indexed": true,
          "internalType": "address",
          "name": "from",
          "type": "address"
        },
        {
          "indexed": true,
          "internalType": "address",
          "name": "to",
          "type": "address"
        },
        {
          "indexed": false,
          "internalType": "uint256[]",
          "name": "ids",
          "type": "uint256[]"
        },
        {
          "indexed": false,
          "internalType": "uint256[]",
          "name": "values",
          "type": "uint256[]"
        }
      ],
      "name": "TransferBatch",
      "type": "event"
    },
    {
      "anonymous": false,
      "inputs": [
        {
          "indexed": true,
          "internalType": "address",
          "name": "operator",
          "type": "address"
        },
        {
          "indexed": true,
          "internalType": "address",
          "name": "from",
          "type": "address"
        },
        {
          "indexed": true,
          "internalType": "address",
          "name": "to",
          "type": "address"
        },
        {
          "indexed": false,
          "internalType": "uint256",
          "name": "id",
          "type": "uint256"
        },
        {
          "indexed": false,
          "internalType": "uint256",
          "name": "value",
          "type": "uint256"
        }
      ],
      "name": "TransferSingle",
      "type": "event"
    },
    {
      "anonymous": false,
      "inputs": [
        {
          "indexed": false,
          "internalType": "string",
          "name": "value",
          "type": "string"
        },
        {
          "indexed": true,
          "internalType": "uint256",
          "name": "id",
          "type": "uint256"
        }
      ],
      "name": "URI",
      "type": "event"
    },
    {
      "inputs": [],
      "name": "ATTACK",
      "outputs": [
        {
          "internalType": "uint256",
          "name": "",
          "type": "uint256"
        }
      ],
      "stateMutability": "view",
      "type": "function"
    },
    {
      "inputs": [],
      "name": "CASH",
      "outputs": [
        {
          "internalType": "uint256",
          "name": "",
          "type": "uint256"
        }
      ],
      "stateMutability": "view",
      "type": "function"
    },
    {
      "inputs": [],
      "name": "HEALTH",
      "outputs": [
        {
          "internalType": "uint256",
          "name": "",
          "type": "uint256"
        }
      ],
      "stateMutability": "view",
      "type": "function"
    },
    {
      "inputs": [],
      "name": "HEALTH_BY_POTION",
      "outputs": [
        {
          "internalType": "uint256",
          "name": "",
          "type": "uint256"
        }
      ],
      "stateMutability": "view",
      "type": "function"
    },
    {
      "inputs": [],
      "name": "HEALTH_BY_SUPER_POTION",
      "outputs": [
        {
          "internalType": "uint256",
          "name": "",
          "type": "uint256"
        }
      ],
      "stateMutability": "view",
      "type": "function"
    },
    {
      "inputs": [],
      "name": "POTION",
      "outputs": [
        {
          "internalType": "uint256",
          "name": "",
          "type": "uint256"
        }
      ],
      "stateMutability": "view",
      "type": "function"
    },
    {
      "inputs": [],
      "name": "SUPER_POTION",
      "outputs": [
        {
          "internalType": "uint256",
          "name": "",
          "type": "uint256"
        }
      ],
      "stateMutability": "view",
      "type": "function"
    },
    {
      "inputs": [
        {
          "internalType": "address",
          "name": "account",
          "type": "address"
        },
        {
          "internalType": "uint256",
          "name": "id",
          "type": "uint256"
        }
      ],
      "name": "balanceOf",
      "outputs": [
        {
          "internalType": "uint256",
          "name": "",
          "type": "uint256"
        }
      ],
      "stateMutability": "view",
      "type": "function"
    },
    {
      "inputs": [
        {
          "internalType": "address[]",
          "name": "accounts",
          "type": "address[]"
        },
        {
          "internalType": "uint256[]",
          "name": "ids",
          "type": "uint256[]"
        }
      ],
      "name": "balanceOfBatch",
      "outputs": [
        {
          "internalType": "uint256[]",
          "name": "",
          "type": "uint256[]"
        }
      ],
      "stateMutability": "view",
      "type": "function"
    },
    {
      "inputs": [
        {
          "internalType": "address",
          "name": "account",
          "type": "address"
        },
        {
          "internalType": "uint256",
          "name": "id",
          "type": "uint256"
        },
        {
          "internalType": "uint256",
          "name": "amount",
          "type": "uint256"
        }
      ],
      "name": "burn",
      "outputs": [],
      "stateMutability": "nonpayable",
      "type": "function"
    },
    {
      "inputs": [
        {
          "internalType": "address",
          "name": "account",
          "type": "address"
        },
        {
          "internalType": "uint256[]",
          "name": "ids",
          "type": "uint256[]"
        },
        {
          "internalType": "uint256[]",
          "name": "amounts",
          "type": "uint256[]"
        }
      ],
      "name": "burnBatch",
      "outputs": [],
      "stateMutability": "nonpayable",
      "type": "function"
    },
    {
      "inputs": [],
      "name": "claimStarterPack",
      "outputs": [],
      "stateMutability": "nonpayable",
      "type": "function"
    },
    {
      "inputs": [
        {
          "internalType": "address",
          "name": "",
          "type": "address"
        }
      ],
      "name": "hasClaimedStarterPack",
      "outputs": [
        {
          "internalType": "bool",
          "name": "",
          "type": "bool"
        }
      ],
      "stateMutability": "view",
      "type": "function"
    },
    {
      "inputs": [
        {
          "internalType": "address",
          "name": "account",
          "type": "address"
        },
        {
          "internalType": "uint256",
          "name": "amount",
          "type": "uint256"
        }
      ],
      "name": "healWithPotion",
      "outputs": [],
      "stateMutability": "nonpayable",
      "type": "function"
    },
    {
      "inputs": [
        {
          "internalType": "address",
          "name": "account",
          "type": "address"
        },
        {
          "internalType": "uint256",
          "name": "amount",
          "type": "uint256"
        }
      ],
      "name": "healWithSuperPotion",
      "outputs": [],
      "stateMutability": "nonpayable",
      "type": "function"
    },
    {
      "inputs": [
        {
          "internalType": "address",
          "name": "account",
          "type": "address"
        },
        {
          "internalType": "address",
          "name": "operator",
          "type": "address"
        }
      ],
      "name": "isApprovedForAll",
      "outputs": [
        {
          "internalType": "bool",
          "name": "",
          "type": "bool"
        }
      ],
      "stateMutability": "view",
      "type": "function"
    },
    {
      "inputs": [
        {
          "internalType": "address",
          "name": "account",
          "type": "address"
        },
        {
          "internalType": "uint256",
          "name": "id",
          "type": "uint256"
        },
        {
          "internalType": "uint256",
          "name": "amount",
          "type": "uint256"
        },
        {
          "internalType": "bytes",
          "name": "data",
          "type": "bytes"
        }
      ],
      "name": "mint",
      "outputs": [],
      "stateMutability": "nonpayable",
      "type": "function"
    },
    {
      "inputs": [
        {
          "internalType": "address",
          "name": "account",
          "type": "address"
        },
        {
          "internalType": "uint256[]",
          "name": "ids",
          "type": "uint256[]"
        },
        {
          "internalType": "uint256[]",
          "name": "amounts",
          "type": "uint256[]"
        },
        {
          "internalType": "bytes",
          "name": "data",
          "type": "bytes"
        }
      ],
      "name": "mintBatch",
      "outputs": [],
      "stateMutability": "nonpayable",
      "type": "function"
    },
    {
      "inputs": [],
      "name": "name",
      "outputs": [
        {
          "internalType": "string",
          "name": "",
          "type": "string"
        }
      ],
      "stateMutability": "view",
      "type": "function"
    },
    {
      "inputs": [],
      "name": "owner",
      "outputs": [
        {
          "internalType": "address",
          "name": "",
          "type": "address"
        }
      ],
      "stateMutability": "view",
      "type": "function"
    },
    {
      "inputs": [],
      "name": "renounceOwnership",
      "outputs": [],
      "stateMutability": "nonpayable",
      "type": "function"
    },
    {
      "inputs": [
        {
          "internalType": "address",
          "name": "from",
          "type": "address"
        },
        {
          "internalType": "address",
          "name": "to",
          "type": "address"
        },
        {
          "internalType": "uint256[]",
          "name": "ids",
          "type": "uint256[]"
        },
        {
          "internalType": "uint256[]",
          "name": "amounts",
          "type": "uint256[]"
        },
        {
          "internalType": "bytes",
          "name": "data",
          "type": "bytes"
        }
      ],
      "name": "safeBatchTransferFrom",
      "outputs": [],
      "stateMutability": "nonpayable",
      "type": "function"
    },
    {
      "inputs": [
        {
          "internalType": "address",
          "name": "from",
          "type": "address"
        },
        {
          "internalType": "address",
          "name": "to",
          "type": "address"
        },
        {
          "internalType": "uint256",
          "name": "id",
          "type": "uint256"
        },
        {
          "internalType": "uint256",
          "name": "amount",
          "type": "uint256"
        },
        {
          "internalType": "bytes",
          "name": "data",
          "type": "bytes"
        }
      ],
      "name": "safeTransferFrom",
      "outputs": [],
      "stateMutability": "nonpayable",
      "type": "function"
    },
    {
      "inputs": [
        {
          "internalType": "address",
          "name": "operator",
          "type": "address"
        },
        {
          "internalType": "bool",
          "name": "approved",
          "type": "bool"
        }
      ],
      "name": "setApprovalForAll",
      "outputs": [],
      "stateMutability": "nonpayable",
      "type": "function"
    },
    {
      "inputs": [
        {
          "internalType": "bytes4",
          "name": "interfaceId",
          "type": "bytes4"
        }
      ],
      "name": "supportsInterface",
      "outputs": [
        {
          "internalType": "bool",
          "name": "",
          "type": "bool"
        }
      ],
      "stateMutability": "view",
      "type": "function"
    },
    {
      "inputs": [
        {
          "internalType": "address",
          "name": "newOwner",
          "type": "address"
        }
      ],
      "name": "transferOwnership",
      "outputs": [],
      "stateMutability": "nonpayable",
      "type": "function"
    },
    {
      "inputs": [
        {
          "internalType": "uint256",
          "name": "",
          "type": "uint256"
        }
      ],
      "name": "uri",
      "outputs": [
        {
          "internalType": "string",
          "name": "",
          "type": "string"
        }
      ],
      "stateMutability": "view",
      "type": "function"
    }
  ],
  "bytecode": "0x608060405234801561001057600080fd5b50336040518060600160405280602681526020016141456026913961003a816100ec60201b60201c565b50600073ffffffffffffffffffffffffffffffffffffffff168173ffffffffffffffffffffffffffffffffffffffff16036100ad5760006040517f1e4fbdf70000000000000000000000000000000000000000000000000000000081526004016100a49190610ad7565b60405180910390fd5b6100bc816100ff60201b60201c565b506100e7336000670de0b6b3a7640000604051806020016040528060008152506101c560201b60201c565b6111c5565b80600290816100fb9190610d42565b5050565b6000600360009054906101000a900473ffffffffffffffffffffffffffffffffffffffff16905081600360006101000a81548173ffffffffffffffffffffffffffffffffffffffff021916908373ffffffffffffffffffffffffffffffffffffffff1602179055508173ffffffffffffffffffffffffffffffffffffffff168173ffffffffffffffffffffffffffffffffffffffff167f8be0079c531659141344cd1fd0a4f28419497f9722a3daafe3b4186f6b6457e060405160405180910390a35050565b600073ffffffffffffffffffffffffffffffffffffffff168473ffffffffffffffffffffffffffffffffffffffff16036102375760006040517f57f447ce00000000000000000000000000000000000000000000000000000000815260040161022e9190610ad7565b60405180910390fd5b60008061024a858561026a60201b60201c565b9150915061026260008784848761029a60201b60201c565b505050505050565b60608060405191506001825283602083015260408201905060018152826020820152604081016040529250929050565b6102ac8585858561036460201b60201c565b600073ffffffffffffffffffffffffffffffffffffffff168473ffffffffffffffffffffffffffffffffffffffff161461035d5760006102f061071260201b60201c565b9050600184510361034657600061031160008661071a60201b90919060201c565b9050600061032960008661071a60201b90919060201c565b905061033f83898985858961072e60201b60201c565b505061035b565b61035a8187878787876108e260201b60201c565b5b505b5050505050565b80518251146103ae57815181516040517f5b0599910000000000000000000000000000000000000000000000000000000081526004016103a5929190610e23565b60405180910390fd5b60006103be61071260201b60201c565b905060005b83518110156105cd5760006103e1828661071a60201b90919060201c565b905060006103f8838661071a60201b90919060201c565b9050600073ffffffffffffffffffffffffffffffffffffffff168873ffffffffffffffffffffffffffffffffffffffff161461052557600080600084815260200190815260200160002060008a73ffffffffffffffffffffffffffffffffffffffff1673ffffffffffffffffffffffffffffffffffffffff168152602001908152602001600020549050818110156104cd57888183856040517f03dee4c50000000000000000000000000000000000000000000000000000000081526004016104c49493929190610e4c565b60405180910390fd5b81810360008085815260200190815260200160002060008b73ffffffffffffffffffffffffffffffffffffffff1673ffffffffffffffffffffffffffffffffffffffff16815260200190815260200160002081905550505b600073ffffffffffffffffffffffffffffffffffffffff168773ffffffffffffffffffffffffffffffffffffffff16146105c0578060008084815260200190815260200160002060008973ffffffffffffffffffffffffffffffffffffffff1673ffffffffffffffffffffffffffffffffffffffff16815260200190815260200160002060008282546105b89190610ec0565b925050819055505b50508060010190506103c3565b50600183510361068c5760006105ed60008561071a60201b90919060201c565b9050600061060560008561071a60201b90919060201c565b90508573ffffffffffffffffffffffffffffffffffffffff168773ffffffffffffffffffffffffffffffffffffffff168473ffffffffffffffffffffffffffffffffffffffff167fc3d58168c5ae7397731d063d5bbf3d657854427343f4c083240f7aacaa2d0f62858560405161067d929190610e23565b60405180910390a4505061070b565b8373ffffffffffffffffffffffffffffffffffffffff168573ffffffffffffffffffffffffffffffffffffffff168273ffffffffffffffffffffffffffffffffffffffff167f4a39dc06d4c0dbc64b70af90fd698a233a518aa5d07e595d983b8c0526c8f7fb8686604051610702929190610fb2565b60405180910390a45b5050505050565b600033905090565b600060208202602084010151905092915050565b60008473ffffffffffffffffffffffffffffffffffffffff163b11156108da578373ffffffffffffffffffffffffffffffffffffffff1663f23a6e6187878686866040518663ffffffff1660e01b815260040161078f959493929190611079565b6020604051808303816000875af19250505080156107cb57506040513d601f19601f820116820180604052508101906107c89190611130565b60015b61084f573d80600081146107fb576040519150601f19603f3d011682016040523d82523d6000602084013e610800565b606091505b50600081510361084757846040517f57f447ce00000000000000000000000000000000000000000000000000000000815260040161083e9190610ad7565b60405180910390fd5b805181602001fd5b63f23a6e6160e01b7bffffffffffffffffffffffffffffffffffffffffffffffffffffffff1916817bffffffffffffffffffffffffffffffffffffffffffffffffffffffff1916146108d857846040517f57f447ce0000000000000000000000000000000000000000000000000000000081526004016108cf9190610ad7565b60405180910390fd5b505b505050505050565b60008473ffffffffffffffffffffffffffffffffffffffff163b1115610a8e578373ffffffffffffffffffffffffffffffffffffffff1663bc197c8187878686866040518663ffffffff1660e01b815260040161094395949392919061115d565b6020604051808303816000875af192505050801561097f57506040513d601f19601f8201168201806040525081019061097c9190611130565b60015b610a03573d80600081146109af576040519150601f19603f3d011682016040523d82523d6000602084013e6109b4565b606091505b5060008151036109fb57846040517f57f447ce0000000000000000000000000000000000000000000000000000000081526004016109f29190610ad7565b60405180910390fd5b805181602001fd5b63bc197c8160e01b7bffffffffffffffffffffffffffffffffffffffffffffffffffffffff1916817bffffffffffffffffffffffffffffffffffffffffffffffffffffffff191614610a8c57846040517f57f447ce000000000000000000000000000000000000000000000000000000008152600401610a839190610ad7565b60405180910390fd5b505b505050505050565b600073ffffffffffffffffffffffffffffffffffffffff82169050919050565b6000610ac182610a96565b9050919050565b610ad181610ab6565b82525050565b6000602082019050610aec6000830184610ac8565b92915050565b600081519050919050565b7f4e487b7100000000000000000000000000000000000000000000000000000000600052604160045260246000fd5b7f4e487b7100000000000000000000000000000000000000000000000000000000600052602260045260246000fd5b60006002820490506001821680610b7357607f821691505b602082108103610b8657610b85610b2c565b5b50919050565b60008190508160005260206000209050919050565b60006020601f8301049050919050565b600082821b905092915050565b600060088302610bee7fffffffffffffffffffffffffffffffffffffffffffffffffffffffffffffffff82610bb1565b610bf88683610bb1565b95508019841693508086168417925050509392505050565b6000819050919050565b6000819050919050565b6000610c3f610c3a610c3584610c10565b610c1a565b610c10565b9050919050565b6000819050919050565b610c5983610c24565b610c6d610c6582610c46565b848454610bbe565b825550505050565b600090565b610c82610c75565b610c8d818484610c50565b505050565b5b81811015610cb157610ca6600082610c7a565b600181019050610c93565b5050565b601f821115610cf657610cc781610b8c565b610cd084610ba1565b81016020851015610cdf578190505b610cf3610ceb85610ba1565b830182610c92565b50505b505050565b600082821c905092915050565b6000610d1960001984600802610cfb565b1980831691505092915050565b6000610d328383610d08565b9150826002028217905092915050565b610d4b82610af2565b67ffffffffffffffff811115610d6457610d63610afd565b5b610d6e8254610b5b565b610d79828285610cb5565b600060209050601f831160018114610dac5760008415610d9a578287015190505b610da48582610d26565b865550610e0c565b601f198416610dba86610b8c565b60005b82811015610de257848901518255600182019150602085019450602081019050610dbd565b86831015610dff5784890151610dfb601f891682610d08565b8355505b6001600288020188555050505b505050505050565b610e1d81610c10565b82525050565b6000604082019050610e386000830185610e14565b610e456020830184610e14565b9392505050565b6000608082019050610e616000830187610ac8565b610e6e6020830186610e14565b610e7b6040830185610e14565b610e886060830184610e14565b95945050505050565b7f4e487b7100000000000000000000000000000000000000000000000000000000600052601160045260246000fd5b6000610ecb82610c10565b9150610ed683610c10565b9250828201905080821115610eee57610eed610e91565b5b92915050565b600081519050919050565b600082825260208201905092915050565b6000819050602082019050919050565b610f2981610c10565b82525050565b6000610f3b8383610f20565b60208301905092915050565b6000602082019050919050565b6000610f5f82610ef4565b610f698185610eff565b9350610f7483610f10565b8060005b83811015610fa5578151610f8c8882610f2f565b9750610f9783610f47565b925050600181019050610f78565b5085935050505092915050565b60006040820190508181036000830152610fcc8185610f54565b90508181036020830152610fe08184610f54565b90509392505050565b600081519050919050565b600082825260208201905092915050565b60005b83811015611023578082015181840152602081019050611008565b60008484015250505050565b6000601f19601f8301169050919050565b600061104b82610fe9565b6110558185610ff4565b9350611065818560208601611005565b61106e8161102f565b840191505092915050565b600060a08201905061108e6000830188610ac8565b61109b6020830187610ac8565b6110a86040830186610e14565b6110b56060830185610e14565b81810360808301526110c78184611040565b90509695505050505050565b600080fd5b60007fffffffff0000000000000000000000000000000000000000000000000000000082169050919050565b61110d816110d8565b811461111857600080fd5b50565b60008151905061112a81611104565b92915050565b600060208284031215611146576111456110d3565b5b60006111548482850161111b565b91505092915050565b600060a0820190506111726000830188610ac8565b61117f6020830187610ac8565b81810360408301526111918186610f54565b905081810360608301526111a58185610f54565b905081810360808301526111b98184611040565b90509695505050505050565b612f71806111d46000396000f3fe608060405234801561001057600080fd5b50600436106101a85760003560e01c8063731133e9116100f9578063d437a9a311610097578063e985e9c511610071578063e985e9c514610483578063f242432a146104b3578063f2fde38b146104cf578063f5298aca146104eb576101a8565b8063d437a9a314610417578063dc8ebcd214610435578063e86badf414610453576101a8565b80639cd51d25116100d35780639cd51d25146103b7578063a22cb465146103c1578063c4969815146103dd578063c9c1cb8c146103fb576101a8565b8063731133e91461035f5780638da5cb5b1461037b57806397373bc514610399576101a8565b80632eb2c2d6116101665780634e1273f4116101405780634e1273f4146102ed5780636b20c4541461031d578063715018a61461033957806372f32ed514610343576101a8565b80632eb2c2d61461029557806336e5dcd4146102b15780633b295b11146102cf576101a8565b8062fdd58e146101ad57806301ffc9a7146101dd57806306fdde031461020d5780630bf8ca361461022b5780630e89341c146102495780631f7fdffa14610279575b600080fd5b6101c760048036038101906101c29190611f69565b610507565b6040516101d49190611fb8565b60405180910390f35b6101f760048036038101906101f2919061202b565b610561565b6040516102049190612073565b60405180910390f35b610215610643565b604051610222919061211e565b60405180910390f35b61023361067c565b6040516102409190611fb8565b60405180910390f35b610263600480360381019061025e9190612140565b610681565b604051610270919061211e565b60405180910390f35b610293600480360381019061028e919061236a565b610715565b005b6102af60048036038101906102aa9190612425565b61072f565b005b6102b9610809565b6040516102c69190611fb8565b60405180910390f35b6102d761080e565b6040516102e49190611fb8565b60405180910390f35b610307600480360381019061030291906125b7565b610813565b60405161031491906126ed565b60405180910390f35b6103376004803603810190610332919061270f565b61091c565b005b610341610934565b005b61035d60048036038101906103589190611f69565b610948565b005b6103796004803603810190610374919061279a565b6109cd565b005b6103836109e7565b604051610390919061282c565b60405180910390f35b6103a1610a11565b6040516103ae9190611fb8565b60405180910390f35b6103bf610a16565b005b6103db60048036038101906103d69190612873565b610b5d565b005b6103e5610b73565b6040516103f29190611fb8565b60405180910390f35b61041560048036038101906104109190611f69565b610b78565b005b61041f610bfd565b60405161042c9190611fb8565b60405180910390f35b61043d610c02565b60405161044a9190611fb8565b60405180910390f35b61046d600480360381019061046891906128b3565b610c07565b60405161047a9190612073565b60405180910390f35b61049d600480360381019061049891906128e0565b610c27565b6040516104aa9190612073565b60405180910390f35b6104cd60048036038101906104c89190612920565b610cbb565b005b6104e960048036038101906104e491906128b3565b610d2d565b005b610505600480360381019061050091906129b7565b610db3565b005b600080600083815260200190815260200160002060008473ffffffffffffffffffffffffffffffffffffffff1673ffffffffffffffffffffffffffffffffffffffff16815260200190815260200160002054905092915050565b60007fd9b67a26000000000000000000000000000000000000000000000000000000007bffffffffffffffffffffffffffffffffffffffffffffffffffffffff1916827bffffffffffffffffffffffffffffffffffffffffffffffffffffffff1916148061062c57507f0e89341c000000000000000000000000000000000000000000000000000000007bffffffffffffffffffffffffffffffffffffffffffffffffffffffff1916827bffffffffffffffffffffffffffffffffffffffffffffffffffffffff1916145b8061063c575061063b82610dcb565b5b9050919050565b6040518060400160405280600981526020017f557365724974656d73000000000000000000000000000000000000000000000081525081565b600281565b60606002805461069090612a39565b80601f01602080910402602001604051908101604052809291908181526020018280546106bc90612a39565b80156107095780601f106106de57610100808354040283529160200191610709565b820191906000526020600020905b8154815290600101906020018083116106ec57829003601f168201915b50505050509050919050565b61071d610e35565b61072984848484610ebc565b50505050565b60005b83518110156107f45760008482815181106107505761074f612a6a565b5b6020026020010151141580156107815750600184828151811061077657610775612a6a565b5b602002602001015114155b80156107a85750600284828151811061079d5761079c612a6a565b5b602002602001015114155b6107e7576040517f08c379a00000000000000000000000000000000000000000000000000000000081526004016107de90612b0b565b60405180910390fd5b8080600101915050610732565b506108028585858585610f42565b5050505050565b603281565b600381565b6060815183511461085f57815183516040517f5b059991000000000000000000000000000000000000000000000000000000008152600401610856929190612b2b565b60405180910390fd5b6000835167ffffffffffffffff81111561087c5761087b612172565b5b6040519080825280602002602001820160405280156108aa5781602001602082028036833780820191505090505b50905060005b8451811015610911576108e76108cf8287610fea90919063ffffffff16565b6108e28387610ffe90919063ffffffff16565b610507565b8282815181106108fa576108f9612a6a565b5b6020026020010181815250508060010190506108b0565b508091505092915050565b610924610e35565b61092f838383611012565b505050565b61093c610e35565b61094660006110a6565b565b80610954836004610507565b1015610995576040517f08c379a000000000000000000000000000000000000000000000000000000000815260040161098c90612ba0565b60405180910390fd5b6109a18260048361116c565b6109c98260016032846109b49190612bef565b60405180602001604052806000815250611213565b5050565b6109d5610e35565b6109e184848484611213565b50505050565b6000600360009054906101000a900473ffffffffffffffffffffffffffffffffffffffff16905090565b600a81565b600460003373ffffffffffffffffffffffffffffffffffffffff1673ffffffffffffffffffffffffffffffffffffffff16815260200190815260200160002060009054906101000a900460ff1615610aa3576040517f08c379a0000000000000000000000000000000000000000000000000000000008152600401610a9a90612c7d565b60405180910390fd5b6001600460003373ffffffffffffffffffffffffffffffffffffffff1673ffffffffffffffffffffffffffffffffffffffff16815260200190815260200160002060006101000a81548160ff021916908315150217905550610b2133600069021e19e0c9bab240000060405180602001604052806000815250611213565b610b3e336001606460405180602001604052806000815250611213565b610b5b336002606460405180602001604052806000815250611213565b565b610b6f610b686112ac565b83836112b4565b5050565b600081565b80610b84836003610507565b1015610bc5576040517f08c379a0000000000000000000000000000000000000000000000000000000008152600401610bbc90612ce9565b60405180910390fd5b610bd18260038361116c565b610bf9826001600a84610be49190612bef565b60405180602001604052806000815250611213565b5050565b600481565b600181565b60046020528060005260406000206000915054906101000a900460ff1681565b6000600160008473ffffffffffffffffffffffffffffffffffffffff1673ffffffffffffffffffffffffffffffffffffffff16815260200190815260200160002060008373ffffffffffffffffffffffffffffffffffffffff1673ffffffffffffffffffffffffffffffffffffffff16815260200190815260200160002060009054906101000a900460ff16905092915050565b60008314158015610ccd575060018314155b8015610cda575060028314155b610d19576040517f08c379a0000000000000000000000000000000000000000000000000000000008152600401610d1090612b0b565b60405180910390fd5b610d268585858585611424565b5050505050565b610d35610e35565b600073ffffffffffffffffffffffffffffffffffffffff168173ffffffffffffffffffffffffffffffffffffffff1603610da75760006040517f1e4fbdf7000000000000000000000000000000000000000000000000000000008152600401610d9e919061282c565b60405180910390fd5b610db0816110a6565b50565b610dbb610e35565b610dc683838361116c565b505050565b60007f01ffc9a7000000000000000000000000000000000000000000000000000000007bffffffffffffffffffffffffffffffffffffffffffffffffffffffff1916827bffffffffffffffffffffffffffffffffffffffffffffffffffffffff1916149050919050565b610e3d6112ac565b73ffffffffffffffffffffffffffffffffffffffff16610e5b6109e7565b73ffffffffffffffffffffffffffffffffffffffff1614610eba57610e7e6112ac565b6040517f118cdaa7000000000000000000000000000000000000000000000000000000008152600401610eb1919061282c565b60405180910390fd5b565b600073ffffffffffffffffffffffffffffffffffffffff168473ffffffffffffffffffffffffffffffffffffffff1603610f2e5760006040517f57f447ce000000000000000000000000000000000000000000000000000000008152600401610f25919061282c565b60405180910390fd5b610f3c6000858585856114cc565b50505050565b6000610f4c6112ac565b90508073ffffffffffffffffffffffffffffffffffffffff168673ffffffffffffffffffffffffffffffffffffffff1614158015610f915750610f8f8682610c27565b155b15610fd55780866040517fe237d922000000000000000000000000000000000000000000000000000000008152600401610fcc929190612d09565b60405180910390fd5b610fe2868686868661157e565b505050505050565b600060208202602084010151905092915050565b600060208202602084010151905092915050565b600073ffffffffffffffffffffffffffffffffffffffff168373ffffffffffffffffffffffffffffffffffffffff16036110845760006040517f01a8351400000000000000000000000000000000000000000000000000000000815260040161107b919061282c565b60405180910390fd5b6110a18360008484604051806020016040528060008152506114cc565b505050565b6000600360009054906101000a900473ffffffffffffffffffffffffffffffffffffffff16905081600360006101000a81548173ffffffffffffffffffffffffffffffffffffffff021916908373ffffffffffffffffffffffffffffffffffffffff1602179055508173ffffffffffffffffffffffffffffffffffffffff168173ffffffffffffffffffffffffffffffffffffffff167f8be0079c531659141344cd1fd0a4f28419497f9722a3daafe3b4186f6b6457e060405160405180910390a35050565b600073ffffffffffffffffffffffffffffffffffffffff168373ffffffffffffffffffffffffffffffffffffffff16036111de5760006040517f01a835140000000000000000000000000000000000000000000000000000000081526004016111d5919061282c565b60405180910390fd5b6000806111eb8484611676565b9150915061120c8560008484604051806020016040528060008152506114cc565b5050505050565b600073ffffffffffffffffffffffffffffffffffffffff168473ffffffffffffffffffffffffffffffffffffffff16036112855760006040517f57f447ce00000000000000000000000000000000000000000000000000000000815260040161127c919061282c565b60405180910390fd5b6000806112928585611676565b915091506112a46000878484876114cc565b505050505050565b600033905090565b600073ffffffffffffffffffffffffffffffffffffffff168273ffffffffffffffffffffffffffffffffffffffff16036113265760006040517fced3e10000000000000000000000000000000000000000000000000000000000815260040161131d919061282c565b60405180910390fd5b80600160008573ffffffffffffffffffffffffffffffffffffffff1673ffffffffffffffffffffffffffffffffffffffff16815260200190815260200160002060008473ffffffffffffffffffffffffffffffffffffffff1673ffffffffffffffffffffffffffffffffffffffff16815260200190815260200160002060006101000a81548160ff0219169083151502179055508173ffffffffffffffffffffffffffffffffffffffff168373ffffffffffffffffffffffffffffffffffffffff167f17307eab39ab6107e8899845ad3d59bd9653f200f220920489ca2b5937696c31836040516114179190612073565b60405180910390a3505050565b600061142e6112ac565b90508073ffffffffffffffffffffffffffffffffffffffff168673ffffffffffffffffffffffffffffffffffffffff161415801561147357506114718682610c27565b155b156114b75780866040517fe237d9220000000000000000000000000000000000000000000000000000000081526004016114ae929190612d09565b60405180910390fd5b6114c486868686866116a6565b505050505050565b6114d8858585856117b1565b600073ffffffffffffffffffffffffffffffffffffffff168473ffffffffffffffffffffffffffffffffffffffff16146115775760006115166112ac565b90506001845103611566576000611537600086610ffe90919063ffffffff16565b9050600061154f600086610ffe90919063ffffffff16565b905061155f838989858589611b59565b5050611575565b611574818787878787611d0d565b5b505b5050505050565b600073ffffffffffffffffffffffffffffffffffffffff168473ffffffffffffffffffffffffffffffffffffffff16036115f05760006040517f57f447ce0000000000000000000000000000000000000000000000000000000081526004016115e7919061282c565b60405180910390fd5b600073ffffffffffffffffffffffffffffffffffffffff168573ffffffffffffffffffffffffffffffffffffffff16036116625760006040517f01a83514000000000000000000000000000000000000000000000000000000008152600401611659919061282c565b60405180910390fd5b61166f85858585856114cc565b5050505050565b60608060405191506001825283602083015260408201905060018152826020820152604081016040529250929050565b600073ffffffffffffffffffffffffffffffffffffffff168473ffffffffffffffffffffffffffffffffffffffff16036117185760006040517f57f447ce00000000000000000000000000000000000000000000000000000000815260040161170f919061282c565b60405180910390fd5b600073ffffffffffffffffffffffffffffffffffffffff168573ffffffffffffffffffffffffffffffffffffffff160361178a5760006040517f01a83514000000000000000000000000000000000000000000000000000000008152600401611781919061282c565b60405180910390fd5b6000806117978585611676565b915091506117a887878484876114cc565b50505050505050565b80518251146117fb57815181516040517f5b0599910000000000000000000000000000000000000000000000000000000081526004016117f2929190612b2b565b60405180910390fd5b60006118056112ac565b905060005b8351811015611a145760006118288286610ffe90919063ffffffff16565b9050600061183f8386610ffe90919063ffffffff16565b9050600073ffffffffffffffffffffffffffffffffffffffff168873ffffffffffffffffffffffffffffffffffffffff161461196c57600080600084815260200190815260200160002060008a73ffffffffffffffffffffffffffffffffffffffff1673ffffffffffffffffffffffffffffffffffffffff1681526020019081526020016000205490508181101561191457888183856040517f03dee4c500000000000000000000000000000000000000000000000000000000815260040161190b9493929190612d32565b60405180910390fd5b81810360008085815260200190815260200160002060008b73ffffffffffffffffffffffffffffffffffffffff1673ffffffffffffffffffffffffffffffffffffffff16815260200190815260200160002081905550505b600073ffffffffffffffffffffffffffffffffffffffff168773ffffffffffffffffffffffffffffffffffffffff1614611a07578060008084815260200190815260200160002060008973ffffffffffffffffffffffffffffffffffffffff1673ffffffffffffffffffffffffffffffffffffffff16815260200190815260200160002060008282546119ff9190612d77565b925050819055505b505080600101905061180a565b506001835103611ad3576000611a34600085610ffe90919063ffffffff16565b90506000611a4c600085610ffe90919063ffffffff16565b90508573ffffffffffffffffffffffffffffffffffffffff168773ffffffffffffffffffffffffffffffffffffffff168473ffffffffffffffffffffffffffffffffffffffff167fc3d58168c5ae7397731d063d5bbf3d657854427343f4c083240f7aacaa2d0f628585604051611ac4929190612b2b565b60405180910390a45050611b52565b8373ffffffffffffffffffffffffffffffffffffffff168573ffffffffffffffffffffffffffffffffffffffff168273ffffffffffffffffffffffffffffffffffffffff167f4a39dc06d4c0dbc64b70af90fd698a233a518aa5d07e595d983b8c0526c8f7fb8686604051611b49929190612dab565b60405180910390a45b5050505050565b60008473ffffffffffffffffffffffffffffffffffffffff163b1115611d05578373ffffffffffffffffffffffffffffffffffffffff1663f23a6e6187878686866040518663ffffffff1660e01b8152600401611bba959493929190612e37565b6020604051808303816000875af1925050508015611bf657506040513d601f19601f82011682018060405250810190611bf39190612ea6565b60015b611c7a573d8060008114611c26576040519150601f19603f3d011682016040523d82523d6000602084013e611c2b565b606091505b506000815103611c7257846040517f57f447ce000000000000000000000000000000000000000000000000000000008152600401611c69919061282c565b60405180910390fd5b805181602001fd5b63f23a6e6160e01b7bffffffffffffffffffffffffffffffffffffffffffffffffffffffff1916817bffffffffffffffffffffffffffffffffffffffffffffffffffffffff191614611d0357846040517f57f447ce000000000000000000000000000000000000000000000000000000008152600401611cfa919061282c565b60405180910390fd5b505b505050505050565b60008473ffffffffffffffffffffffffffffffffffffffff163b1115611eb9578373ffffffffffffffffffffffffffffffffffffffff1663bc197c8187878686866040518663ffffffff1660e01b8152600401611d6e959493929190612ed3565b6020604051808303816000875af1925050508015611daa57506040513d601f19601f82011682018060405250810190611da79190612ea6565b60015b611e2e573d8060008114611dda576040519150601f19603f3d011682016040523d82523d6000602084013e611ddf565b606091505b506000815103611e2657846040517f57f447ce000000000000000000000000000000000000000000000000000000008152600401611e1d919061282c565b60405180910390fd5b805181602001fd5b63bc197c8160e01b7bffffffffffffffffffffffffffffffffffffffffffffffffffffffff1916817bffffffffffffffffffffffffffffffffffffffffffffffffffffffff191614611eb757846040517f57f447ce000000000000000000000000000000000000000000000000000000008152600401611eae919061282c565b60405180910390fd5b505b505050505050565b6000604051905090565b600080fd5b600080fd5b600073ffffffffffffffffffffffffffffffffffffffff82169050919050565b6000611f0082611ed5565b9050919050565b611f1081611ef5565b8114611f1b57600080fd5b50565b600081359050611f2d81611f07565b92915050565b6000819050919050565b611f4681611f33565b8114611f5157600080fd5b50565b600081359050611f6381611f3d565b92915050565b60008060408385031215611f8057611f7f611ecb565b5b6000611f8e85828601611f1e565b9250506020611f9f85828601611f54565b9150509250929050565b611fb281611f33565b82525050565b6000602082019050611fcd6000830184611fa9565b92915050565b60007fffffffff0000000000000000000000000000000000000000000000000000000082169050919050565b61200881611fd3565b811461201357600080fd5b50565b60008135905061202581611fff565b92915050565b60006020828403121561204157612040611ecb565b5b600061204f84828501612016565b91505092915050565b60008115159050919050565b61206d81612058565b82525050565b60006020820190506120886000830184612064565b92915050565b600081519050919050565b600082825260208201905092915050565b60005b838110156120c85780820151818401526020810190506120ad565b60008484015250505050565b6000601f19601f8301169050919050565b60006120f08261208e565b6120fa8185612099565b935061210a8185602086016120aa565b612113816120d4565b840191505092915050565b6000602082019050818103600083015261213881846120e5565b905092915050565b60006020828403121561215657612155611ecb565b5b600061216484828501611f54565b91505092915050565b600080fd5b7f4e487b7100000000000000000000000000000000000000000000000000000000600052604160045260246000fd5b6121aa826120d4565b810181811067ffffffffffffffff821117156121c9576121c8612172565b5b80604052505050565b60006121dc611ec1565b90506121e882826121a1565b919050565b600067ffffffffffffffff82111561220857612207612172565b5b602082029050602081019050919050565b600080fd5b600061223161222c846121ed565b6121d2565b9050808382526020820190506020840283018581111561225457612253612219565b5b835b8181101561227d57806122698882611f54565b845260208401935050602081019050612256565b5050509392505050565b600082601f83011261229c5761229b61216d565b5b81356122ac84826020860161221e565b91505092915050565b600080fd5b600067ffffffffffffffff8211156122d5576122d4612172565b5b6122de826120d4565b9050602081019050919050565b82818337600083830152505050565b600061230d612308846122ba565b6121d2565b905082815260208101848484011115612329576123286122b5565b5b6123348482856122eb565b509392505050565b600082601f8301126123515761235061216d565b5b81356123618482602086016122fa565b91505092915050565b6000806000806080858703121561238457612383611ecb565b5b600061239287828801611f1e565b945050602085013567ffffffffffffffff8111156123b3576123b2611ed0565b5b6123bf87828801612287565b935050604085013567ffffffffffffffff8111156123e0576123df611ed0565b5b6123ec87828801612287565b925050606085013567ffffffffffffffff81111561240d5761240c611ed0565b5b6124198782880161233c565b91505092959194509250565b600080600080600060a0868803121561244157612440611ecb565b5b600061244f88828901611f1e565b955050602061246088828901611f1e565b945050604086013567ffffffffffffffff81111561248157612480611ed0565b5b61248d88828901612287565b935050606086013567ffffffffffffffff8111156124ae576124ad611ed0565b5b6124ba88828901612287565b925050608086013567ffffffffffffffff8111156124db576124da611ed0565b5b6124e78882890161233c565b9150509295509295909350565b600067ffffffffffffffff82111561250f5761250e612172565b5b602082029050602081019050919050565b600061253361252e846124f4565b6121d2565b9050808382526020820190506020840283018581111561255657612555612219565b5b835b8181101561257f578061256b8882611f1e565b845260208401935050602081019050612558565b5050509392505050565b600082601f83011261259e5761259d61216d565b5b81356125ae848260208601612520565b91505092915050565b600080604083850312156125ce576125cd611ecb565b5b600083013567ffffffffffffffff8111156125ec576125eb611ed0565b5b6125f885828601612589565b925050602083013567ffffffffffffffff81111561261957612618611ed0565b5b61262585828601612287565b9150509250929050565b600081519050919050565b600082825260208201905092915050565b6000819050602082019050919050565b61266481611f33565b82525050565b6000612676838361265b565b60208301905092915050565b6000602082019050919050565b600061269a8261262f565b6126a4818561263a565b93506126af8361264b565b8060005b838110156126e05781516126c7888261266a565b97506126d283612682565b9250506001810190506126b3565b5085935050505092915050565b60006020820190508181036000830152612707818461268f565b905092915050565b60008060006060848603121561272857612727611ecb565b5b600061273686828701611f1e565b935050602084013567ffffffffffffffff81111561275757612756611ed0565b5b61276386828701612287565b925050604084013567ffffffffffffffff81111561278457612783611ed0565b5b61279086828701612287565b9150509250925092565b600080600080608085870312156127b4576127b3611ecb565b5b60006127c287828801611f1e565b94505060206127d387828801611f54565b93505060406127e487828801611f54565b925050606085013567ffffffffffffffff81111561280557612804611ed0565b5b6128118782880161233c565b91505092959194509250565b61282681611ef5565b82525050565b6000602082019050612841600083018461281d565b92915050565b61285081612058565b811461285b57600080fd5b50565b60008135905061286d81612847565b92915050565b6000806040838503121561288a57612889611ecb565b5b600061289885828601611f1e565b92505060206128a98582860161285e565b9150509250929050565b6000602082840312156128c9576128c8611ecb565b5b60006128d784828501611f1e565b91505092915050565b600080604083850312156128f7576128f6611ecb565b5b600061290585828601611f1e565b925050602061291685828601611f1e565b9150509250929050565b600080600080600060a0868803121561293c5761293b611ecb565b5b600061294a88828901611f1e565b955050602061295b88828901611f1e565b945050604061296c88828901611f54565b935050606061297d88828901611f54565b925050608086013567ffffffffffffffff81111561299e5761299d611ed0565b5b6129aa8882890161233c565b9150509295509295909350565b6000806000606084860312156129d0576129cf611ecb565b5b60006129de86828701611f1e565b93505060206129ef86828701611f54565b9250506040612a0086828701611f54565b9150509250925092565b7f4e487b7100000000000000000000000000000000000000000000000000000000600052602260045260246000fd5b60006002820490506001821680612a5157607f821691505b602082108103612a6457612a63612a0a565b5b50919050565b7f4e487b7100000000000000000000000000000000000000000000000000000000600052603260045260246000fd5b7f4361736820616e64204865616c74682063616e6e6f74206265207472616e736660008201527f65727265642c206f6e6c79206d696e746564206f72206275726e656400000000602082015250565b6000612af5603c83612099565b9150612b0082612a99565b604082019050919050565b60006020820190508181036000830152612b2481612ae8565b9050919050565b6000604082019050612b406000830185611fa9565b612b4d6020830184611fa9565b9392505050565b7f4e6f7420656e6f75676820737570657220706f74696f6e7320746f206865616c600082015250565b6000612b8a602083612099565b9150612b9582612b54565b602082019050919050565b60006020820190508181036000830152612bb981612b7d565b9050919050565b7f4e487b7100000000000000000000000000000000000000000000000000000000600052601160045260246000fd5b6000612bfa82611f33565b9150612c0583611f33565b9250828202612c1381611f33565b91508282048414831517612c2a57612c29612bc0565b5b5092915050565b7f53746172746572207061636b20616c726561647920636c61696d656400000000600082015250565b6000612c67601c83612099565b9150612c7282612c31565b602082019050919050565b60006020820190508181036000830152612c9681612c5a565b9050919050565b7f4e6f7420656e6f75676820706f74696f6e7320746f206865616c000000000000600082015250565b6000612cd3601a83612099565b9150612cde82612c9d565b602082019050919050565b60006020820190508181036000830152612d0281612cc6565b9050919050565b6000604082019050612d1e600083018561281d565b612d2b602083018461281d565b9392505050565b6000608082019050612d47600083018761281d565b612d546020830186611fa9565b612d616040830185611fa9565b612d6e6060830184611fa9565b95945050505050565b6000612d8282611f33565b9150612d8d83611f33565b9250828201905080821115612da557612da4612bc0565b5b92915050565b60006040820190508181036000830152612dc5818561268f565b90508181036020830152612dd9818461268f565b90509392505050565b600081519050919050565b600082825260208201905092915050565b6000612e0982612de2565b612e138185612ded565b9350612e238185602086016120aa565b612e2c816120d4565b840191505092915050565b600060a082019050612e4c600083018861281d565b612e59602083018761281d565b612e666040830186611fa9565b612e736060830185611fa9565b8181036080830152612e858184612dfe565b90509695505050505050565b600081519050612ea081611fff565b92915050565b600060208284031215612ebc57612ebb611ecb565b5b6000612eca84828501612e91565b91505092915050565b600060a082019050612ee8600083018861281d565b612ef5602083018761281d565b8181036040830152612f07818661268f565b90508181036060830152612f1b818561268f565b90508181036080830152612f2f8184612dfe565b9050969550505050505056fea2646970667358221220a86e32a98c1653070dd0c49ddffc7ecdaaa150aac02624e619b53bdfc5f7991564736f6c634300081c003368747470733a2f2f6c6f63616c686f73743a383030312f6974656d732f7b69647d2e6a736f6e",
  "linkReferences": {},
  "deployedLinkReferences": {}
}